{
  "contractName": "DecentralBank",
  "abi": [
    {
      "inputs": [
        {
          "internalType": "contract RWD",
          "name": "_rwd",
          "type": "address"
        },
        {
          "internalType": "contract Tether",
          "name": "_tether",
          "type": "address"
        }
      ],
      "stateMutability": "nonpayable",
      "type": "constructor"
    },
    {
      "inputs": [
        {
          "internalType": "address",
          "name": "",
          "type": "address"
        }
      ],
      "name": "hasStacked",
      "outputs": [
        {
          "internalType": "bool",
          "name": "",
          "type": "bool"
        }
      ],
      "stateMutability": "view",
      "type": "function",
      "constant": true
    },
    {
      "inputs": [
        {
          "internalType": "address",
          "name": "",
          "type": "address"
        }
      ],
      "name": "isStacking",
      "outputs": [
        {
          "internalType": "bool",
          "name": "",
          "type": "bool"
        }
      ],
      "stateMutability": "view",
      "type": "function",
      "constant": true
    },
    {
      "inputs": [],
      "name": "name",
      "outputs": [
        {
          "internalType": "string",
          "name": "",
          "type": "string"
        }
      ],
      "stateMutability": "view",
      "type": "function",
      "constant": true
    },
    {
      "inputs": [],
      "name": "owner",
      "outputs": [
        {
          "internalType": "address",
          "name": "",
          "type": "address"
        }
      ],
      "stateMutability": "view",
      "type": "function",
      "constant": true
    },
    {
      "inputs": [
        {
          "internalType": "address",
          "name": "",
          "type": "address"
        }
      ],
      "name": "rewarded",
      "outputs": [
        {
          "internalType": "bool",
          "name": "",
          "type": "bool"
        }
      ],
      "stateMutability": "view",
      "type": "function",
      "constant": true
    },
    {
      "inputs": [],
      "name": "rwd",
      "outputs": [
        {
          "internalType": "contract RWD",
          "name": "",
          "type": "address"
        }
      ],
      "stateMutability": "view",
      "type": "function",
      "constant": true
    },
    {
      "inputs": [
        {
          "internalType": "uint256",
          "name": "",
          "type": "uint256"
        }
      ],
      "name": "stackers",
      "outputs": [
        {
          "internalType": "address",
          "name": "",
          "type": "address"
        }
      ],
      "stateMutability": "view",
      "type": "function",
      "constant": true
    },
    {
      "inputs": [
        {
          "internalType": "address",
          "name": "",
          "type": "address"
        }
      ],
      "name": "stackingBalance",
      "outputs": [
        {
          "internalType": "uint256",
          "name": "",
          "type": "uint256"
        }
      ],
      "stateMutability": "view",
      "type": "function",
      "constant": true
    },
    {
      "inputs": [],
      "name": "tether",
      "outputs": [
        {
          "internalType": "contract Tether",
          "name": "",
          "type": "address"
        }
      ],
      "stateMutability": "view",
      "type": "function",
      "constant": true
    },
    {
      "inputs": [
        {
          "internalType": "uint256",
          "name": "amount",
          "type": "uint256"
        }
      ],
      "name": "depositTokens",
      "outputs": [],
      "stateMutability": "nonpayable",
      "type": "function"
    },
    {
      "inputs": [],
      "name": "unStacking",
      "outputs": [],
      "stateMutability": "nonpayable",
      "type": "function"
    }
  ],
  "bytecode": "0x60806040526040518060400160405280600e81526020017f446563656e7472616c2042616e6b000000000000000000000000000000000000815250600090816200004a9190620003c3565b503480156200005857600080fd5b50604051620014723803806200147283398181016040528101906200007e91906200056d565b80600260006101000a81548173ffffffffffffffffffffffffffffffffffffffff021916908373ffffffffffffffffffffffffffffffffffffffff16021790555081600360006101000a81548173ffffffffffffffffffffffffffffffffffffffff021916908373ffffffffffffffffffffffffffffffffffffffff16021790555033600160006101000a81548173ffffffffffffffffffffffffffffffffffffffff021916908373ffffffffffffffffffffffffffffffffffffffff1602179055505050620005b4565b600081519050919050565b7f4e487b7100000000000000000000000000000000000000000000000000000000600052604160045260246000fd5b7f4e487b7100000000000000000000000000000000000000000000000000000000600052602260045260246000fd5b60006002820490506001821680620001cb57607f821691505b602082108103620001e157620001e062000183565b5b50919050565b60008190508160005260206000209050919050565b60006020601f8301049050919050565b600082821b905092915050565b6000600883026200024b7fffffffffffffffffffffffffffffffffffffffffffffffffffffffffffffffff826200020c565b6200025786836200020c565b95508019841693508086168417925050509392505050565b6000819050919050565b6000819050919050565b6000620002a46200029e62000298846200026f565b62000279565b6200026f565b9050919050565b6000819050919050565b620002c08362000283565b620002d8620002cf82620002ab565b84845462000219565b825550505050565b600090565b620002ef620002e0565b620002fc818484620002b5565b505050565b5b81811015620003245762000318600082620002e5565b60018101905062000302565b5050565b601f82111562000373576200033d81620001e7565b6200034884620001fc565b8101602085101562000358578190505b620003706200036785620001fc565b83018262000301565b50505b505050565b600082821c905092915050565b6000620003986000198460080262000378565b1980831691505092915050565b6000620003b3838362000385565b9150826002028217905092915050565b620003ce8262000149565b67ffffffffffffffff811115620003ea57620003e962000154565b5b620003f68254620001b2565b6200040382828562000328565b600060209050601f8311600181146200043b576000841562000426578287015190505b620004328582620003a5565b865550620004a2565b601f1984166200044b86620001e7565b60005b8281101562000475578489015182556001820191506020850194506020810190506200044e565b8683101562000495578489015162000491601f89168262000385565b8355505b6001600288020188555050505b505050505050565b600080fd5b600073ffffffffffffffffffffffffffffffffffffffff82169050919050565b6000620004dc82620004af565b9050919050565b6000620004f082620004cf565b9050919050565b6200050281620004e3565b81146200050e57600080fd5b50565b6000815190506200052281620004f7565b92915050565b60006200053582620004cf565b9050919050565b620005478162000528565b81146200055357600080fd5b50565b60008151905062000567816200053c565b92915050565b60008060408385031215620005875762000586620004aa565b5b6000620005978582860162000511565b9250506020620005aa8582860162000556565b9150509250929050565b610eae80620005c46000396000f3fe608060405234801561001057600080fd5b50600436106100a95760003560e01c8063379f53e311610071578063379f53e3146101545780635efc071a1461018457806378197289146101a25780638da5cb5b146101d2578063dd49756e146101f0578063fb453e231461020c576100a9565b806306fdde03146100ae57806307e9417a146100cc5780631a8972d3146100fc57806332ac90cf1461011a57806332e71c181461014a575b600080fd5b6100b661023c565b6040516100c39190610a47565b60405180910390f35b6100e660048036038101906100e19190610acc565b6102ca565b6040516100f39190610b14565b60405180910390f35b6101046102ea565b6040516101119190610b8e565b60405180910390f35b610134600480360381019061012f9190610acc565b610310565b6040516101419190610b14565b60405180910390f35b610152610330565b005b61016e60048036038101906101699190610acc565b6104af565b60405161017b9190610b14565b60405180910390f35b61018c6104cf565b6040516101999190610bca565b60405180910390f35b6101bc60048036038101906101b79190610acc565b6104f5565b6040516101c99190610bfe565b60405180910390f35b6101da61050d565b6040516101e79190610c28565b60405180910390f35b61020a60048036038101906102059190610c6f565b610533565b005b61022660048036038101906102219190610c6f565b610978565b6040516102339190610c28565b60405180910390f35b6000805461024990610ccb565b80601f016020809104026020016040519081016040528092919081815260200182805461027590610ccb565b80156102c25780601f10610297576101008083540402835291602001916102c2565b820191906000526020600020905b8154815290600101906020018083116102a557829003601f168201915b505050505081565b60056020528060005260406000206000915054906101000a900460ff1681565b600360009054906101000a900473ffffffffffffffffffffffffffffffffffffffff1681565b60046020528060005260406000206000915054906101000a900460ff1681565b600260009054906101000a900473ffffffffffffffffffffffffffffffffffffffff1673ffffffffffffffffffffffffffffffffffffffff1663a9059cbb33600660003373ffffffffffffffffffffffffffffffffffffffff1673ffffffffffffffffffffffffffffffffffffffff168152602001908152602001600020546040518363ffffffff1660e01b81526004016103cc929190610cfc565b6020604051808303816000875af11580156103eb573d6000803e3d6000fd5b505050506040513d601f19601f8201168201806040525081019061040f9190610d51565b506000600560003373ffffffffffffffffffffffffffffffffffffffff1673ffffffffffffffffffffffffffffffffffffffff16815260200190815260200160002060006101000a81548160ff0219169083151502179055506000600660003373ffffffffffffffffffffffffffffffffffffffff1673ffffffffffffffffffffffffffffffffffffffff16815260200190815260200160002081905550565b60076020528060005260406000206000915054906101000a900460ff1681565b600260009054906101000a900473ffffffffffffffffffffffffffffffffffffffff1681565b60066020528060005260406000206000915090505481565b600160009054906101000a900473ffffffffffffffffffffffffffffffffffffffff1681565b600260009054906101000a900473ffffffffffffffffffffffffffffffffffffffff1673ffffffffffffffffffffffffffffffffffffffff166323b872dd3330846040518463ffffffff1660e01b815260040161059293929190610d7e565b6020604051808303816000875af11580156105b1573d6000803e3d6000fd5b505050506040513d601f19601f820116820180604052508101906105d59190610d51565b50600460003373ffffffffffffffffffffffffffffffffffffffff1673ffffffffffffffffffffffffffffffffffffffff16815260200190815260200160002060009054906101000a900460ff1661068b576008339080600181540180825580915050600190039060005260206000200160009091909190916101000a81548173ffffffffffffffffffffffffffffffffffffffff021916908373ffffffffffffffffffffffffffffffffffffffff1602179055505b80600660003373ffffffffffffffffffffffffffffffffffffffff1673ffffffffffffffffffffffffffffffffffffffff16815260200190815260200160002060008282546106da9190610de4565b925050819055506001600460003373ffffffffffffffffffffffffffffffffffffffff1673ffffffffffffffffffffffffffffffffffffffff16815260200190815260200160002060006101000a81548160ff0219169083151502179055506001600560003373ffffffffffffffffffffffffffffffffffffffff1673ffffffffffffffffffffffffffffffffffffffff16815260200190815260200160002060006101000a81548160ff0219169083151502179055506032600660003373ffffffffffffffffffffffffffffffffffffffff1673ffffffffffffffffffffffffffffffffffffffff168152602001908152602001600020541015801561082b5750600760003373ffffffffffffffffffffffffffffffffffffffff1673ffffffffffffffffffffffffffffffffffffffff16815260200190815260200160002060009054906101000a900460ff16155b1561097557600360009054906101000a900473ffffffffffffffffffffffffffffffffffffffff1673ffffffffffffffffffffffffffffffffffffffff1663a9059cbb336009600660003373ffffffffffffffffffffffffffffffffffffffff1673ffffffffffffffffffffffffffffffffffffffff168152602001908152602001600020546108bb9190610e47565b6040518363ffffffff1660e01b81526004016108d8929190610cfc565b6020604051808303816000875af11580156108f7573d6000803e3d6000fd5b505050506040513d601f19601f8201168201806040525081019061091b9190610d51565b506001600760003373ffffffffffffffffffffffffffffffffffffffff1673ffffffffffffffffffffffffffffffffffffffff16815260200190815260200160002060006101000a81548160ff0219169083151502179055505b50565b6008818154811061098857600080fd5b906000526020600020016000915054906101000a900473ffffffffffffffffffffffffffffffffffffffff1681565b600081519050919050565b600082825260208201905092915050565b60005b838110156109f15780820151818401526020810190506109d6565b60008484015250505050565b6000601f19601f8301169050919050565b6000610a19826109b7565b610a2381856109c2565b9350610a338185602086016109d3565b610a3c816109fd565b840191505092915050565b60006020820190508181036000830152610a618184610a0e565b905092915050565b600080fd5b600073ffffffffffffffffffffffffffffffffffffffff82169050919050565b6000610a9982610a6e565b9050919050565b610aa981610a8e565b8114610ab457600080fd5b50565b600081359050610ac681610aa0565b92915050565b600060208284031215610ae257610ae1610a69565b5b6000610af084828501610ab7565b91505092915050565b60008115159050919050565b610b0e81610af9565b82525050565b6000602082019050610b296000830184610b05565b92915050565b6000819050919050565b6000610b54610b4f610b4a84610a6e565b610b2f565b610a6e565b9050919050565b6000610b6682610b39565b9050919050565b6000610b7882610b5b565b9050919050565b610b8881610b6d565b82525050565b6000602082019050610ba36000830184610b7f565b92915050565b6000610bb482610b5b565b9050919050565b610bc481610ba9565b82525050565b6000602082019050610bdf6000830184610bbb565b92915050565b6000819050919050565b610bf881610be5565b82525050565b6000602082019050610c136000830184610bef565b92915050565b610c2281610a8e565b82525050565b6000602082019050610c3d6000830184610c19565b92915050565b610c4c81610be5565b8114610c5757600080fd5b50565b600081359050610c6981610c43565b92915050565b600060208284031215610c8557610c84610a69565b5b6000610c9384828501610c5a565b91505092915050565b7f4e487b7100000000000000000000000000000000000000000000000000000000600052602260045260246000fd5b60006002820490506001821680610ce357607f821691505b602082108103610cf657610cf5610c9c565b5b50919050565b6000604082019050610d116000830185610c19565b610d1e6020830184610bef565b9392505050565b610d2e81610af9565b8114610d3957600080fd5b50565b600081519050610d4b81610d25565b92915050565b600060208284031215610d6757610d66610a69565b5b6000610d7584828501610d3c565b91505092915050565b6000606082019050610d936000830186610c19565b610da06020830185610c19565b610dad6040830184610bef565b949350505050565b7f4e487b7100000000000000000000000000000000000000000000000000000000600052601160045260246000fd5b6000610def82610be5565b9150610dfa83610be5565b9250828201905080821115610e1257610e11610db5565b5b92915050565b7f4e487b7100000000000000000000000000000000000000000000000000000000600052601260045260246000fd5b6000610e5282610be5565b9150610e5d83610be5565b925082610e6d57610e6c610e18565b5b82820490509291505056fea264697066735822122057c1a4f36254bb94f50b88b303276c0627592e8e16c19aeb8bf356e1f367cc8964736f6c63430008110033",
  "immutableReferences": {},
  "source": "pragma solidity ^0.8.0;\r\nimport './Tether.sol';\r\nimport './RWD.sol';\r\ncontract DecentralBank{\r\n  string public name= 'Decentral Bank';\r\n  address public owner;\r\n  Tether public tether;\r\n  RWD public rwd;\r\n  constructor(RWD _rwd,Tether _tether)public{\r\n   tether=_tether;\r\n   rwd=_rwd;\r\n   owner=msg.sender;\r\n  }\r\n  mapping (address=>bool)public hasStacked;\r\n  mapping (address=>bool)public isStacking;\r\n  mapping (address=>uint256)public stackingBalance;\r\n   mapping (address =>bool)public rewarded;\r\n  address[]public stackers; \r\n  function depositTokens(uint amount)public {\r\n   tether.transferFrom(msg.sender,address(this), amount);\r\n   if(!hasStacked[msg.sender]){\r\n    stackers.push(msg.sender);\r\n   }\r\n   stackingBalance[msg.sender]+=amount;\r\n   hasStacked[msg.sender]=true;\r\n   isStacking[msg.sender]=true;\r\n   if(stackingBalance[msg.sender]>=50 && !rewarded[msg.sender]){\r\n      rwd.transfer(msg.sender, stackingBalance[msg.sender]/9);\r\n      rewarded[msg.sender]=true;\r\n    }\r\n  }\r\n  //  function rewardTokens(address customer)public{\r\n  //   require(msg.sender==owner);\r\n  //     if(stackingBalance[customer]>=50 && !rewarded[customer]){\r\n  //     rwd.transfer(customer, stackingBalance[customer]/9);\r\n  //     rewarded[customer]=true;\r\n  //   }\r\n  //  }\r\n   function unStacking()public{\r\n    tether.transfer(msg.sender, stackingBalance[msg.sender]);\r\n    isStacking[msg.sender]=false;\r\n    stackingBalance[msg.sender]=0;\r\n   }\r\n    }\r\n",
  "sourcePath": "C:\\blockchain\\defi-staking-app-starter\\defi-staking-app-starter\\src\\contracts\\DecentralBank.sol",
  "compiler": {
    "name": "solc",
    "version": "0.8.17+commit.8df45f5f.Emscripten.clang"
  },
  "schemaVersion": "3.4.11",
  "updatedAt": "2022-12-31T17:31:21.031Z",
  "networkType": "ethereum",
  "devdoc": {
    "kind": "dev",
    "methods": {},
    "version": 1
  },
  "userdoc": {
    "kind": "user",
    "methods": {},
    "version": 1
  }
}