{
  "contractName": "Migrations",
  "abi": [
    {
      "inputs": [],
      "stateMutability": "nonpayable",
      "type": "constructor"
    },
    {
      "inputs": [
        {
          "internalType": "uint256",
          "name": "completed",
          "type": "uint256"
        }
      ],
      "name": "setCompleted",
      "outputs": [],
      "stateMutability": "nonpayable",
      "type": "function"
    },
    {
      "inputs": [
        {
          "internalType": "address",
          "name": "new_address",
          "type": "address"
        }
      ],
      "name": "upgrade",
      "outputs": [],
      "stateMutability": "nonpayable",
      "type": "function"
    }
  ],
  "bytecode": "0x608060405234801561001057600080fd5b50336000806101000a81548173ffffffffffffffffffffffffffffffffffffffff021916908373ffffffffffffffffffffffffffffffffffffffff1602179055506102f6806100606000396000f3fe608060405234801561001057600080fd5b50600436106100365760003560e01c80630900f0101461003b578063fdacd57614610057575b600080fd5b61005560048036038101906100509190610206565b610073565b005b610071600480360381019061006c9190610269565b610141565b005b60008054906101000a900473ffffffffffffffffffffffffffffffffffffffff1673ffffffffffffffffffffffffffffffffffffffff163373ffffffffffffffffffffffffffffffffffffffff16146100cb57600080fd5b60008190508073ffffffffffffffffffffffffffffffffffffffff1663fdacd5766001546040518263ffffffff1660e01b815260040161010b91906102a5565b600060405180830381600087803b15801561012557600080fd5b505af1158015610139573d6000803e3d6000fd5b505050505050565b60008054906101000a900473ffffffffffffffffffffffffffffffffffffffff1673ffffffffffffffffffffffffffffffffffffffff163373ffffffffffffffffffffffffffffffffffffffff161461019957600080fd5b8060018190555050565b600080fd5b600073ffffffffffffffffffffffffffffffffffffffff82169050919050565b60006101d3826101a8565b9050919050565b6101e3816101c8565b81146101ee57600080fd5b50565b600081359050610200816101da565b92915050565b60006020828403121561021c5761021b6101a3565b5b600061022a848285016101f1565b91505092915050565b6000819050919050565b61024681610233565b811461025157600080fd5b50565b6000813590506102638161023d565b92915050565b60006020828403121561027f5761027e6101a3565b5b600061028d84828501610254565b91505092915050565b61029f81610233565b82525050565b60006020820190506102ba6000830184610296565b9291505056fea26469706673582212203c8958b46eba5b05d9e1c43137d75ae8486dbcb152a2717f15a47a4b6662063b64736f6c63430008110033",
  "immutableReferences": {},
  "source": "pragma solidity ^0.8.0;\r\ncontract Migrations{\r\n    address owner;\r\n    uint last_completed_migration;\r\n    constructor (){\r\n        owner=msg.sender;\r\n    }\r\n    modifier restricted(){\r\n        require(msg.sender==owner);\r\n        _;\r\n    }\r\n    function setCompleted(uint completed)public restricted{\r\n        last_completed_migration=completed;\r\n    }\r\n    function upgrade(address new_address)public restricted{\r\n        Migrations upgrade=Migrations(new_address);\r\n        upgrade.setCompleted(last_completed_migration);\r\n    }\r\n}",
  "sourcePath": "C:\\blockchain\\defi-staking-app-starter\\defi-staking-app-starter\\src\\contracts\\Migrations.sol",
  "compiler": {
    "name": "solc",
    "version": "0.8.17+commit.8df45f5f.Emscripten.clang"
  },
  "schemaVersion": "3.4.11",
  "updatedAt": "2022-12-31T17:31:21.042Z",
  "networkType": "ethereum",
  "devdoc": {
    "kind": "dev",
    "methods": {},
    "version": 1
  },
  "userdoc": {
    "kind": "user",
    "methods": {},
    "version": 1
  }
}